S00F000047656E6572616C2E7372656357
S11300000C942A000C9447000C9447000C9447006D
S11300100C9447000C9447000C9447000C94470040
S11300200C9447000C9447000C9447000C94470030
S11300300C9447000C9447000C9447000C94470020
S11300400C9447000C9447000C9447000C94470010
S11300500C94470011241FBECFE5D8E0DEBFCDBF0E
S113006010E0A0E6B0E0E6E4FCE002C005900D92EA
S1130070AE37B107D9F721E0AEE7B0E001C01D9279
S1130080A032B207E1F70E9449000C9421060C94B7
S113009000000E9457000E9435022FE78AE196E093
S11300A0215080409040E1F700C00000F4CF0E944E
S11300B0B6040E94AD032FE38DE093E0215080400D
S11300C09040E1F700C000000E949002089512C021
S11300D0282F30E0F9013296EE0FFF1FE058FF4F52
S11300E040815181220F331FF901E058FF4F5183A2
S11300F040838F5F90917F00981750F792509093B0
S11301007F00089520E04AC0822F90E0FC01EE0FAA
S1130110FF1FE058FF4F408151814A32510501F5DC
S1130120AC0141505109FC013196EE0FFF1FE0581C
S1130130FF4F60817181FA01EE0FFF1FE058FF4FFE
S113014040815181469FC001479F900D569F900D5D
S1130150112491838083822F0E94670020E01DC0B8
S11301604F325105D1F4AC0141505109FC01319693
S1130170EE0FFF1FE058FF4F60817181FA01EE0F0F
S1130180FF1FE058FF4F808191810E94B805718361
S11301906083822F0E94670020E02F5F80917F00A0
S11301A0821708F0B1CF80E043C0282F30E0F90176
S11301B0EE0FFF1FE058FF4F408151814B32510534
S11301C0D1F4A90141505109F9013196EE0FFF1FF5
S11301D0E058FF4F20813181FA01EE0FFF1FE058F4
S11301E0FF4F40815181240F351F318320830E94AA
S11301F0670080E01CC04D325105C9F4A90141508B
S11302005109F9013196EE0FFF1FE058FF4F60814D
S11302107181FA01EE0FFF1FE058FF4F20813181F9
S1130220261B370B318320830E94670080E08F5F99
S113023090917F00981708F0B8CF0895CF92DF927D
S1130240EF92FF920F931F93CF9360916000809180
S113025061000E948A04809162000E94EA032FEDEB
S113026083E994E0215080409040E1F700C0000011
S113027081E00E941A03C1E0C0936100C093600052
S113028061E081E00E948A0483E790E00E947D049B
S11302906AE081E00E948A04E0917F00F0E0EE0FC2
S11302A0FF1FE058FF4F60817181072E000C880BFF
S11302B0990B0F2EF0E4CF2EF2E4DF2EFFE0EF2EA9
S11302C0F12CF02DA70196010E94CC0580E3820F4A
S11302D00E94EA03E0917F00F0E0EE0FFF1FE05878
S11302E0FF4F60817181072E000C880B990BA701C9
S11302F096010E94CC050F2EF0EACF2EF6E8DF2EF1
S1130300EE24E394F12CF02DA70196010E94CC0574
S113031080E3820F0E94EA03E0917F00F0E0EE0F99
S1130320FF1FE058FF4F60817181072E000C880B7E
S1130330990BA70196010E94CC0520E137E240E029
S113034050E00E94CC0580E3820F0E94EA03E09112
S11303507F00F0E0EE0FFF1FE058FF4F8081918196
S113036060E177E20E94B80508EE13E0B8010E944C
S1130370B80580E3860F0E94EA03E0917F00F0E075
S1130380EE0FFF1FE058FF4F80819181B8010E945A
S1130390B80504E610E0B8010E94B80580E3860FB2
S11303A00E94EA03E0917F00F0E0EE0FFF1FE058A7
S11303B0FF4F80819181B8010E94B8050AE010E0E6
S11303C0B8010E94B80580E3860F0E94EA03E09119
S11303D07F00F0E0EE0FFF1FE058FF4F8081918116
S11303E0B8010E94B805805D0E94EA03C0937E00B4
S11303F0CF911F910F91FF90EF90DF90CF900895D0
S11304008053E0917F00F0E0EE0FFF1FE058FF4FB4
S113041020813181A901440F551F220F331F220F60
S1130420331F220F331F240F351F280F311D318333
S1130430208308958A3249F08F3239F08B3229F0C3
S11304408D3219F00E940002089520917F002F5FE1
S1130450E22FF0E0EE0FFF1FE058FF4F90E0918392
S113046080832F5F20937F0008950E94A1028093D0
S113047062008D3309F04CC00E9482000E941E016C
S113048047C080917E00813099F40E941A03109233
S11304907E0010927F0080E009C0E82FF0E0EE0FAC
S11304A0FF1FE058FF4F118210828F5F8035A8F341
S11304B0809162000E941A02609160008091610044
S11304C00E948A04809162000E94EA038091600085
S11304D08F5F853129F4909161009F5F9093610053
S11304E097E8899F212D1124982F921B9695920F9E
S11304F092959F7025E1929F80191124809360004A
S1130500809161008370809361008FEF809362001B
S1130510809162008F3F19F08D3309F0B2CF0895B6
S113052067E083E00E94840566E083E00E9484051E
S113053065E083E00E94840563E083E00E94840513
S113054008950F931F93CF93DF9310E0D1E00FEF43
S113055068C041E065E082E00E94BD0441E064E0DF
S113056082E00E94BD0441E063E082E00E94BD0499
S113057041E062E082E00E94BD04113061F028F0A5
S1130580123081F01330A1F00BC040E065E082E04E
S11305900E94BD0405C040E064E082E00E94BD0406
S11305A0C0E03AC040E063E082E00E94BD04F8CFBE
S11305B040E062E082E00E94BD04F2CFC13061F00D
S11305C028F0C23079F0C33099F017C067E083E0B7
S11305D00E942A05D82F11C066E083E00E942A05F4
S11305E0D82F0BC065E083E00E942A05D82F05C0F0
S11305F063E083E00E942A05D82FD1110CC0E12FBB
S1130600F0E0EE0FFF1FEE0FFF1FED59FF4FEC0F51
S1130610F11D008103C0CF5FC43080F2DD2321F0DF
S11306201F5F143008F495CF802FDF91CF911F9175
S11306300F910895CF93C82F40E063E080E00E94BB
S1130640BD044C2F407150E05595479555954795FD
S1130650559547955595479560E081E00E94BD0406
S11306604C2F407250E055954795559547955595B3
S11306704795559547955595479561E081E00E94CA
S1130680BD044C2F407450E0042E452F000C441F31
S1130690550B000C441F551F62E081E00E94BD040D
S11306A04C2F441F4427441F64E081E00E94BD0492
S11306B041E062E080E00E94BD0483EF91E0019795
S11306C0F1F700C0000040E062E080E00E94BD0459
S11306D083EF91E00197F1F700C000004C2F4170C7
S11306E060E081E00E94BD044C2F427050E05595BB
S11306F0479561E081E00E94BD044C2F447050E0B6
S1130700559547955595479562E081E00E94BD0453
S1130710C8704C2F50E0559547955595479555957C
S1130720479564E081E00E94BD0441E062E080E01E
S11307300E94BD0483EF91E00197F1F700C000002F
S113074040E062E080E00E94BD0483EF91E0019705
S1130750F1F700C00000CF9108958FE097E2019770
S1130760F1F700C0000083E30E941A0389EF90E0D0
S11307700197F1F700C0000082E30E941A0389EF99
S113078090E00197F1F700C0000088E20E941A038C
S113079089EF90E00197F1F700C000008CE00E941F
S11307A01A0389EF90E00197F1F700C0000081E09F
S11307B00E941A0389EF90E00197F1F700C000004E
S11307C082E00E941A0389EF90E00197F1F700C0DC
S11307D000000895CF93C82F41E063E080E00E94B9
S11307E0BD044C2F407150E055954795559547955C
S11307F0559547955595479560E081E00E94BD0465
S11308004C2F407250E05595479555954795559511
S11308104795559547955595479561E081E00E9428
S1130820BD044C2F407450E0042E452F000C441F8F
S1130830550B000C441F551F62E081E00E94BD046B
S11308404C2F441F4427441F64E081E00E94BD04F0
S113085041E062E080E00E94BD0483EF91E00197F3
S1130860F1F700C0000040E062E080E00E94BD04B7
S113087083EF91E00197F1F700C000004C2F417025
S113088060E081E00E94BD044C2F427050E0559519
S1130890479561E081E00E94BD044C2F447050E014
S11308A0559547955595479562E081E00E94BD04B2
S11308B0C8704C2F50E055954795559547955595DB
S11308C0479564E081E00E94BD0441E062E080E07D
S11308D00E94BD0483EF91E00197F1F700C000008E
S11308E040E062E080E00E94BD0483EF91E0019764
S11308F0F1F700C00000CF910895CF93DF93EC018E
S113090003C00E94EA03219688818111FACFDF9106
S1130910CF9108959FEF980F9430C0F46531C0F4DF
S11309206623C1F0813019F48FE7860F16C0823038
S113093019F48FEB860F11C0833019F483E9860F05
S11309400CC0843049F483ED860F07C080E805C0ED
S113095080E803C080E801C080E80E941A0389EFA0
S113096090E00197F1F700C0000008958FEF8ABB73
S113097087BB84BB87E181BB0895813001F130F0EE
S11309808230B1F1833009F44CC00895413059F4F8
S11309902BB381E090E002C0880F991F6A95E2F7BB
S11309A0822B8BBB08952BB381E090E002C0880FAB
S11309B0991F6A95E2F7809582238BBB0895413095
S11309C059F428B381E090E002C0880F991F6A951A
S11309D0E2F7822B88BB089528B381E090E002C03F
S11309E0880F991F6A95E2F78095822388BB089542
S11309F0413059F425B381E090E002C0880F991F7B
S1130A006A95E2F7822B85BB089525B381E090E0D7
S1130A1002C0880F991F6A95E2F78095822385BBEF
S1130A200895413059F422B381E090E002C0880F68
S1130A30991F6A95E2F7822B82BB089522B381E065
S1130A4090E002C0880F991F6A95E2F7809582238F
S1130A5082BB08958130D1F028F0823059F183307F
S1130A60E9F150C049B381E090E09C01062E02C038
S1130A70220F331F0A94E2F7842F90E082239323FA
S1130A8002C0959587956A95E2F7089546B381E08B
S1130A9090E09C01062E02C0220F331F0A94E2F755
S1130AA0842F90E08223932302C0959587956A95BD
S1130AB0E2F7089543B381E090E09C01062E02C062
S1130AC0220F331F0A94E2F7842F90E082239323AA
S1130AD002C0959587956A95E2F7089540B381E041
S1130AE090E09C01062E02C0220F331F0A94E2F705
S1130AF0842F90E08223932302C0959587956A956D
S1130B00E2F7089580E00895813089F028F082307A
S1130B10C9F0833011F1089529B381E090E002C057
S1130B20880F991F6A95E2F7822B89BB089526B333
S1130B3081E090E002C0880F991F6A95E2F7822B4A
S1130B4086BB089523B381E090E002C0880F991F0B
S1130B506A95E2F7822B83BB089520B381E090E08D
S1130B6002C0880F991F6A95E2F7822B80BB089513
S1130B7097FB072E16F4009407D077FD09D00E9446
S1130B80EB0507FC05D03EF4909581959F4F0895A1
S1130B90709561957F4F0895052E97FB1EF4009480
S1130BA00E94E30557FD07D00E94FF0507FC03D010
S1130BB04EF40C94E30550954095309521953F4FA4
S1130BC04F4F5F4F089590958095709561957F4F35
S1130BD08F4F9F4F0895AA1BBB1B51E107C0AA1F4B
S1130BE0BB1FA617B70710F0A61BB70B881F991FCA
S1130BF05A95A9F780959095BC01CD010895A1E27D
S1130C001A2EAA1BBB1BFD010DC0AA1FBB1FEE1F82
S1130C10FF1FA217B307E407F50720F0A21BB30BCD
S1130C20E40BF50B661F771F881F991F1A9469F749
S1130C3060957095809590959B01AC01BD01CF01A5
S1090C400895F894FFCFB3
S1130C460101FF3738392F3435362A3132332D41F5
S1110C56303D2B526573756C74203D200000F8
S9030000FC
